{
  "contractName": "Marketplace",
  "abi": [
    {
      "inputs": [],
      "payable": false,
      "stateMutability": "nonpayable",
      "type": "constructor"
    },
    {
      "anonymous": false,
      "inputs": [
        {
          "indexed": false,
          "internalType": "uint256",
          "name": "_id",
          "type": "uint256"
        },
        {
          "indexed": false,
          "internalType": "address",
          "name": "_add",
          "type": "address"
        },
        {
          "indexed": false,
          "internalType": "uint256",
          "name": "_reputation",
          "type": "uint256"
        },
        {
          "indexed": false,
          "internalType": "bool",
          "name": "_isCandidate",
          "type": "bool"
        }
      ],
      "name": "Application",
      "type": "event"
    },
    {
      "anonymous": false,
      "inputs": [
        {
          "indexed": false,
          "internalType": "uint256",
          "name": "_id",
          "type": "uint256"
        },
        {
          "indexed": false,
          "internalType": "address",
          "name": "_add",
          "type": "address"
        },
        {
          "indexed": false,
          "internalType": "bytes32",
          "name": "_url",
          "type": "bytes32"
        },
        {
          "indexed": false,
          "internalType": "uint256",
          "name": "_reputation",
          "type": "uint256"
        }
      ],
      "name": "Delivration",
      "type": "event"
    },
    {
      "anonymous": false,
      "inputs": [
        {
          "indexed": false,
          "internalType": "uint256",
          "name": "_id",
          "type": "uint256"
        },
        {
          "indexed": false,
          "internalType": "address",
          "name": "_add",
          "type": "address"
        },
        {
          "indexed": false,
          "internalType": "bool",
          "name": "_isAccepted",
          "type": "bool"
        }
      ],
      "name": "OfferAccepted",
      "type": "event"
    },
    {
      "anonymous": false,
      "inputs": [
        {
          "indexed": false,
          "internalType": "address",
          "name": "_add",
          "type": "address"
        },
        {
          "indexed": false,
          "internalType": "uint256",
          "name": "_id",
          "type": "uint256"
        },
        {
          "indexed": false,
          "internalType": "uint256",
          "name": "_deadline",
          "type": "uint256"
        },
        {
          "indexed": false,
          "internalType": "uint256",
          "name": "_startTime",
          "type": "uint256"
        },
        {
          "indexed": false,
          "internalType": "uint256",
          "name": "_miniReputation",
          "type": "uint256"
        },
        {
          "indexed": false,
          "internalType": "uint256",
          "name": "_cost",
          "type": "uint256"
        },
        {
          "indexed": false,
          "internalType": "string",
          "name": "_description",
          "type": "string"
        },
        {
          "indexed": false,
          "internalType": "string",
          "name": "_url",
          "type": "string"
        },
        {
          "indexed": false,
          "internalType": "enum Marketplace.State",
          "name": "_state",
          "type": "uint8"
        }
      ],
      "name": "RequestCreated",
      "type": "event"
    },
    {
      "anonymous": false,
      "inputs": [
        {
          "indexed": false,
          "internalType": "address",
          "name": "_add",
          "type": "address"
        },
        {
          "indexed": false,
          "internalType": "uint256",
          "name": "_reputation",
          "type": "uint256"
        },
        {
          "indexed": false,
          "internalType": "string",
          "name": "_name",
          "type": "string"
        },
        {
          "indexed": false,
          "internalType": "bool",
          "name": "_isUser",
          "type": "bool"
        }
      ],
      "name": "UserCreated",
      "type": "event"
    },
    {
      "constant": true,
      "inputs": [
        {
          "internalType": "address",
          "name": "",
          "type": "address"
        }
      ],
      "name": "balances",
      "outputs": [
        {
          "internalType": "uint256",
          "name": "",
          "type": "uint256"
        }
      ],
      "payable": false,
      "stateMutability": "view",
      "type": "function"
    },
    {
      "constant": true,
      "inputs": [],
      "name": "requestCount",
      "outputs": [
        {
          "internalType": "uint256",
          "name": "",
          "type": "uint256"
        }
      ],
      "payable": false,
      "stateMutability": "view",
      "type": "function"
    },
    {
      "constant": true,
      "inputs": [
        {
          "internalType": "uint256",
          "name": "",
          "type": "uint256"
        }
      ],
      "name": "requests",
      "outputs": [
        {
          "internalType": "address",
          "name": "company",
          "type": "address"
        },
        {
          "internalType": "uint256",
          "name": "id",
          "type": "uint256"
        },
        {
          "internalType": "uint256",
          "name": "deadline",
          "type": "uint256"
        },
        {
          "internalType": "uint256",
          "name": "startTime",
          "type": "uint256"
        },
        {
          "internalType": "uint256",
          "name": "miniReputation",
          "type": "uint256"
        },
        {
          "internalType": "uint256",
          "name": "remuneration",
          "type": "uint256"
        },
        {
          "internalType": "string",
          "name": "description",
          "type": "string"
        },
        {
          "internalType": "bytes32",
          "name": "url",
          "type": "bytes32"
        },
        {
          "internalType": "enum Marketplace.State",
          "name": "state",
          "type": "uint8"
        }
      ],
      "payable": false,
      "stateMutability": "view",
      "type": "function"
    },
    {
      "constant": true,
      "inputs": [
        {
          "internalType": "address",
          "name": "",
          "type": "address"
        }
      ],
      "name": "users",
      "outputs": [
        {
          "internalType": "uint256",
          "name": "reputation",
          "type": "uint256"
        },
        {
          "internalType": "string",
          "name": "name",
          "type": "string"
        },
        {
          "internalType": "bool",
          "name": "isUser",
          "type": "bool"
        }
      ],
      "payable": false,
      "stateMutability": "view",
      "type": "function"
    },
    {
      "constant": false,
      "inputs": [
        {
          "internalType": "string",
          "name": "_name",
          "type": "string"
        },
        {
          "internalType": "uint256",
          "name": "_reputation",
          "type": "uint256"
        }
      ],
      "name": "inscription",
      "outputs": [],
      "payable": false,
      "stateMutability": "nonpayable",
      "type": "function"
    },
    {
      "constant": false,
      "inputs": [
        {
          "internalType": "string",
          "name": "_description",
          "type": "string"
        },
        {
          "internalType": "uint256",
          "name": "_miniReputation",
          "type": "uint256"
        },
        {
          "internalType": "uint256",
          "name": "_deadline",
          "type": "uint256"
        },
        {
          "internalType": "uint256",
          "name": "_remuneration",
          "type": "uint256"
        }
      ],
      "name": "addRequest",
      "outputs": [],
      "payable": true,
      "stateMutability": "payable",
      "type": "function"
    },
    {
      "constant": false,
      "inputs": [
        {
          "internalType": "uint256",
          "name": "_id",
          "type": "uint256"
        }
      ],
      "name": "applyTo",
      "outputs": [],
      "payable": false,
      "stateMutability": "nonpayable",
      "type": "function"
    },
    {
      "constant": false,
      "inputs": [
        {
          "internalType": "uint256",
          "name": "_id",
          "type": "uint256"
        },
        {
          "internalType": "address",
          "name": "_add",
          "type": "address"
        }
      ],
      "name": "acceptOffer",
      "outputs": [],
      "payable": false,
      "stateMutability": "nonpayable",
      "type": "function"
    },
    {
      "constant": false,
      "inputs": [
        {
          "internalType": "uint256",
          "name": "_id",
          "type": "uint256"
        },
        {
          "internalType": "bytes32",
          "name": "_url",
          "type": "bytes32"
        }
      ],
      "name": "delivery",
      "outputs": [],
      "payable": false,
      "stateMutability": "nonpayable",
      "type": "function"
    },
    {
      "constant": false,
      "inputs": [
        {
          "internalType": "uint256",
          "name": "_id",
          "type": "uint256"
        },
        {
          "internalType": "address",
          "name": "_add",
          "type": "address"
        }
      ],
      "name": "sanction",
      "outputs": [],
      "payable": false,
      "stateMutability": "nonpayable",
      "type": "function"
    }
  ],
  "bytecode": "0x60806040526064600555606660065534801561001a57600080fd5b50336000806101000a81548173ffffffffffffffffffffffffffffffffffffffff021916908373ffffffffffffffffffffffffffffffffffffffff160217905550612ce58061006a6000396000f3fe6080604052600436106100915760003560e01c806381d12c581161005957806381d12c58146102ca578063918d407d146103f057806398ed8a0e1461044b578063a87430ba146104a6578063ebd7b32c1461058257610091565b806311705e63146100965780631b95ab991461016857806327e235e3146101ff57806337a057b8146102645780635badbe4c1461029f575b600080fd5b3480156100a257600080fd5b50610166600480360360408110156100b957600080fd5b81019080803590602001906401000000008111156100d657600080fd5b8201836020820111156100e857600080fd5b8035906020019184600183028401116401000000008311171561010a57600080fd5b91908080601f016020809104026020016040519081016040528093929190818152602001838380828437600081840152601f19601f820116905080830192505050505050509192919290803590602001909291905050506105c7565b005b6101fd6004803603608081101561017e57600080fd5b810190808035906020019064010000000081111561019b57600080fd5b8201836020820111156101ad57600080fd5b803590602001918460018302840111640100000000831117156101cf57600080fd5b9091929391929390803590602001909291908035906020019092919080359060200190929190505050610914565b005b34801561020b57600080fd5b5061024e6004803603602081101561022257600080fd5b81019080803573ffffffffffffffffffffffffffffffffffffffff16906020019092919050505061111a565b6040518082815260200191505060405180910390f35b34801561027057600080fd5b5061029d6004803603602081101561028757600080fd5b8101908080359060200190929190505050611132565b005b3480156102ab57600080fd5b506102b4611889565b6040518082815260200191505060405180910390f35b3480156102d657600080fd5b50610303600480360360208110156102ed57600080fd5b810190808035906020019092919050505061188f565b604051808a73ffffffffffffffffffffffffffffffffffffffff1673ffffffffffffffffffffffffffffffffffffffff1681526020018981526020018881526020018781526020018681526020018581526020018060200184815260200183600281111561036d57fe5b60ff168152602001828103825285818151815260200191508051906020019080838360005b838110156103ad578082015181840152602081019050610392565b50505050905090810190601f1680156103da5780820380516001836020036101000a031916815260200191505b509a505050505050505050505060405180910390f35b3480156103fc57600080fd5b506104496004803603604081101561041357600080fd5b8101908080359060200190929190803573ffffffffffffffffffffffffffffffffffffffff1690602001909291905050506119a2565b005b34801561045757600080fd5b506104a46004803603604081101561046e57600080fd5b8101908080359060200190929190803573ffffffffffffffffffffffffffffffffffffffff169060200190929190505050611eee565b005b3480156104b257600080fd5b506104f5600480360360208110156104c957600080fd5b81019080803573ffffffffffffffffffffffffffffffffffffffff169060200190929190505050612373565b604051808481526020018060200183151515158152602001828103825284818151815260200191508051906020019080838360005b8381101561054557808201518184015260208101905061052a565b50505050905090810190601f1680156105725780820380516001836020036101000a031916815260200191505b5094505050505060405180910390f35b34801561058e57600080fd5b506105c5600480360360408110156105a557600080fd5b810190808035906020019092919080359060200190929190505050612442565b005b600260003373ffffffffffffffffffffffffffffffffffffffff1673ffffffffffffffffffffffffffffffffffffffff16815260200190815260200160002060020160009054906101000a900460ff161561068a576040517f08c379a00000000000000000000000000000000000000000000000000000000081526004018080602001828103825260168152602001807f596f752061726520616c7265616479207573657220210000000000000000000081525060200191505060405180910390fd5b6000825111610701576040517f08c379a00000000000000000000000000000000000000000000000000000000081526004018080602001828103825260158152602001807f746865206e616d65206973206e6f742076616c6964000000000000000000000081525060200191505060405180910390fd5b6001811015610778576040517f08c379a000000000000000000000000000000000000000000000000000000000815260040180806020018281038252601b8152602001807f7468652072657075746174696f6e206973206e6f742076616c6964000000000081525060200191505060405180910390fd5b610780612b78565b604051806060016040528083815260200184815260200160011515815250905080600260003373ffffffffffffffffffffffffffffffffffffffff1673ffffffffffffffffffffffffffffffffffffffff168152602001908152602001600020600082015181600001556020820151816001019080519060200190610806929190612b9b565b5060408201518160020160006101000a81548160ff0219169083151502179055509050507f881aa31aab4c1bff4c3c6485f4f607d00022899789150c303d90943d9185559d3383856001604051808573ffffffffffffffffffffffffffffffffffffffff1673ffffffffffffffffffffffffffffffffffffffff1681526020018481526020018060200183151515158152602001828103825284818151815260200191508051906020019080838360005b838110156108d25780820151818401526020810190506108b7565b50505050905090810190601f1680156108ff5780820380516001836020036101000a031916815260200191505b509550505050505060405180910390a1505050565b33600073ffffffffffffffffffffffffffffffffffffffff168173ffffffffffffffffffffffffffffffffffffffff1614156109b8576040517f08c379a00000000000000000000000000000000000000000000000000000000081526004018080602001828103825260158152602001807f596f75206172652074686520302061646472657373000000000000000000000081525060200191505060405180910390fd5b600260008273ffffffffffffffffffffffffffffffffffffffff1673ffffffffffffffffffffffffffffffffffffffff16815260200190815260200160002060020160009054906101000a900460ff16610a7a576040517f08c379a00000000000000000000000000000000000000000000000000000000081526004018080602001828103825260148152602001807f596f7520617265206e6f7420612075736572202100000000000000000000000081525060200191505060405180910390fd5b60008686905011610af3576040517f08c379a000000000000000000000000000000000000000000000000000000000815260040180806020018281038252601e8152602001807f546865206465736372697074696f6e206973206e6f742076616c69642021000081525060200191505060405180910390fd5b60018411610b69576040517f08c379a000000000000000000000000000000000000000000000000000000000815260040180806020018281038252601b8152602001807f6d696e6952657075746174696f6e206973206e6f742076616c6964000000000081525060200191505060405180910390fd5b60008311610bdf576040517f08c379a00000000000000000000000000000000000000000000000000000000081526004018080602001828103825260198152602001807f54686520646561646c696e65206973206e6f742076616c69640000000000000081525060200191505060405180910390fd5b60008211610c55576040517f08c379a00000000000000000000000000000000000000000000000000000000081526004018080602001828103825260198152602001807f72656d756e65726174696f6e206973206e6f742076616c69640000000000000081525060200191505060405180910390fd5b6000610c80600554610c7260065486612ac290919063ffffffff16565b612af190919063ffffffff16565b905080341015610cf8576040517f08c379a00000000000000000000000000000000000000000000000000000000081526004018080602001828103825260118152602001807f6e6f7420656e6f756768206f662057656900000000000000000000000000000081525060200191505060405180910390fd5b600460008154809291906001019190505550610d7d34600160008060009054906101000a900473ffffffffffffffffffffffffffffffffffffffff1673ffffffffffffffffffffffffffffffffffffffff1673ffffffffffffffffffffffffffffffffffffffff16815260200190815260200160002054612b0a90919063ffffffff16565b600160008060009054906101000a900473ffffffffffffffffffffffffffffffffffffffff1673ffffffffffffffffffffffffffffffffffffffff1673ffffffffffffffffffffffffffffffffffffffff1681526020019081526020016000208190555060006201518085029050610df3612c1b565b6040518061012001604052803373ffffffffffffffffffffffffffffffffffffffff1681526020016004548152602001838152602001600081526020018881526020018681526020018a8a8080601f016020809104026020016040519081016040528093929190818152602001838380828437600081840152601f19601f8201169050808301925050505050505081526020016000801916815260200160006002811115610e9d57fe5b81525090508060036000600454815260200190815260200160002060008201518160000160006101000a81548173ffffffffffffffffffffffffffffffffffffffff021916908373ffffffffffffffffffffffffffffffffffffffff1602179055506020820151816001015560408201518160020155606082015181600301556080820151816004015560a0820151816005015560c0820151816006019080519060200190610f4d929190612b9b565b5060e082015181600701556101008201518160080160006101000a81548160ff02191690836002811115610f7d57fe5b02179055509050507f90ffc0b7cb956681411a3b4ad90a7b7f9052d5183a262a4857cc7fcbb539690e3360045484600060036000600454815260200190815260200160002060040154600360006004548152602001908152602001600020600501546003600060045481526020019081526020016000206006016000604051808973ffffffffffffffffffffffffffffffffffffffff1673ffffffffffffffffffffffffffffffffffffffff168152602001888152602001878152602001868152602001858152602001848152602001806020018060200184600281111561106157fe5b60ff1681526020018381038352858181546001816001161561010002031660029004815260200191508054600181600116156101000203166002900480156110ea5780601f106110bf576101008083540402835291602001916110ea565b820191906000526020600020905b8154815290600101906020018083116110cd57829003601f168201915b50508381038252600081526020016020019a505050505050505050505060405180910390a1505050505050505050565b60016020528060005260406000206000915090505481565b33600073ffffffffffffffffffffffffffffffffffffffff168173ffffffffffffffffffffffffffffffffffffffff1614156111d6576040517f08c379a00000000000000000000000000000000000000000000000000000000081526004018080602001828103825260158152602001807f596f75206172652074686520302061646472657373000000000000000000000081525060200191505060405180910390fd5b600260008273ffffffffffffffffffffffffffffffffffffffff1673ffffffffffffffffffffffffffffffffffffffff16815260200190815260200160002060020160009054906101000a900460ff16611298576040517f08c379a00000000000000000000000000000000000000000000000000000000081526004018080602001828103825260148152602001807f596f7520617265206e6f7420612075736572202100000000000000000000000081525060200191505060405180910390fd5b81600073ffffffffffffffffffffffffffffffffffffffff163373ffffffffffffffffffffffffffffffffffffffff16141561133c576040517f08c379a00000000000000000000000000000000000000000000000000000000081526004018080602001828103825260158152602001807f596f75206172652074686520302061646472657373000000000000000000000081525060200191505060405180910390fd5b3373ffffffffffffffffffffffffffffffffffffffff166003600083815260200190815260200160002060000160009054906101000a900473ffffffffffffffffffffffffffffffffffffffff1673ffffffffffffffffffffffffffffffffffffffff161415611414576040517f08c379a00000000000000000000000000000000000000000000000000000000081526004018080602001828103825260158152602001807f596f75206172652074686520636f6d70616e792021000000000000000000000081525060200191505060405180910390fd5b8260006003600083815260200190815260200160002060010154116114a1576040517f08c379a000000000000000000000000000000000000000000000000000000000815260040180806020018281038252601c8152602001807f546865207265717565737420646f6573206e6f7420657869737420210000000081525060200191505060405180910390fd5b8360008060028111156114b057fe5b6003600084815260200190815260200160002060080160009054906101000a900460ff1660028111156114df57fe5b14611552576040517f08c379a00000000000000000000000000000000000000000000000000000000081526004018080602001828103825260198152602001807f72657175657374206973206e6f742061636365737369626c650000000000000081525060200191505060405180910390fd5b60036000878152602001908152602001600020600a0160003373ffffffffffffffffffffffffffffffffffffffff1673ffffffffffffffffffffffffffffffffffffffff16815260200190815260200160002060009054906101000a900460ff1615611626576040517f08c379a000000000000000000000000000000000000000000000000000000000815260040180806020018281038252601b8152602001807f596f752061726520616c72656164792063616e6469646174652021000000000081525060200191505060405180910390fd5b600260003373ffffffffffffffffffffffffffffffffffffffff1673ffffffffffffffffffffffffffffffffffffffff16815260200190815260200160002060000154600360008881526020019081526020016000206004015411156116f4576040517f08c379a00000000000000000000000000000000000000000000000000000000081526004018080602001828103825260198152602001807f52657075746174696f6e206973206e6f7420656e6f756768740000000000000081525060200191505060405180910390fd5b600160036000888152602001908152602001600020600a0160003373ffffffffffffffffffffffffffffffffffffffff1673ffffffffffffffffffffffffffffffffffffffff16815260200190815260200160002060006101000a81548160ff0219169083151502179055507f019f7174d75a76a2fac35340b42b7ba018b6ee281cba2e0d26a4fe9093c36e168633600260003373ffffffffffffffffffffffffffffffffffffffff1673ffffffffffffffffffffffffffffffffffffffff16815260200190815260200160002060000154600360008b8152602001908152602001600020600a0160003373ffffffffffffffffffffffffffffffffffffffff1673ffffffffffffffffffffffffffffffffffffffff16815260200190815260200160002060009054906101000a900460ff16604051808581526020018473ffffffffffffffffffffffffffffffffffffffff1673ffffffffffffffffffffffffffffffffffffffff1681526020018381526020018215151515815260200194505050505060405180910390a1505050505050565b60045481565b60036020528060005260406000206000915090508060000160009054906101000a900473ffffffffffffffffffffffffffffffffffffffff1690806001015490806002015490806003015490806004015490806005015490806006018054600181600116156101000203166002900480601f01602080910402602001604051908101604052809291908181526020018280546001816001161561010002031660029004801561197f5780601f106119545761010080835404028352916020019161197f565b820191906000526020600020905b81548152906001019060200180831161196257829003601f168201915b5050505050908060070154908060080160009054906101000a900460ff16905089565b816000600360008381526020019081526020016000206001015411611a2f576040517f08c379a000000000000000000000000000000000000000000000000000000000815260040180806020018281038252601c8152602001807f546865207265717565737420646f6573206e6f7420657869737420210000000081525060200191505060405180910390fd5b826000806002811115611a3e57fe5b6003600084815260200190815260200160002060080160009054906101000a900460ff166002811115611a6d57fe5b14611ae0576040517f08c379a00000000000000000000000000000000000000000000000000000000081526004018080602001828103825260198152602001807f72657175657374206973206e6f742061636365737369626c650000000000000081525060200191505060405180910390fd5b8484600073ffffffffffffffffffffffffffffffffffffffff168173ffffffffffffffffffffffffffffffffffffffff161415611b85576040517f08c379a00000000000000000000000000000000000000000000000000000000081526004018080602001828103825260158152602001807f596f75206172652074686520302061646472657373000000000000000000000081525060200191505060405180910390fd5b60036000838152602001908152602001600020600a0160008273ffffffffffffffffffffffffffffffffffffffff1673ffffffffffffffffffffffffffffffffffffffff16815260200190815260200160002060009054906101000a900460ff16611c58576040517f08c379a00000000000000000000000000000000000000000000000000000000081526004018080602001828103825260198152602001807f596f7520617265206e6f7420612063616e64696461746520210000000000000081525060200191505060405180910390fd5b866001611c658282612b26565b3373ffffffffffffffffffffffffffffffffffffffff16600360008b815260200190815260200160002060000160009054906101000a900473ffffffffffffffffffffffffffffffffffffffff1673ffffffffffffffffffffffffffffffffffffffff1614611d3c576040517f08c379a00000000000000000000000000000000000000000000000000000000081526004018080602001828103825260198152602001807f596f7520617265206e6f742074686520636f6d70616e7920210000000000000081525060200191505060405180910390fd5b42600360008b815260200190815260200160002060030181905550600360008a815260200190815260200160002060030154600360008b81526020019081526020016000206002015401600360008b8152602001908152602001600020600201819055506001600360008b815260200190815260200160002060090160008a73ffffffffffffffffffffffffffffffffffffffff1673ffffffffffffffffffffffffffffffffffffffff16815260200190815260200160002060006101000a81548160ff0219169083151502179055507fd8a95b55ebe5e0d82ea2c262f7ef63d1f3c3b8a80a6dd7ccecae8780de6204318989600360008d815260200190815260200160002060090160008c73ffffffffffffffffffffffffffffffffffffffff1673ffffffffffffffffffffffffffffffffffffffff16815260200190815260200160002060009054906101000a900460ff16604051808481526020018373ffffffffffffffffffffffffffffffffffffffff1673ffffffffffffffffffffffffffffffffffffffff16815260200182151515158152602001935050505060405180910390a1505050505050505050565b8181600073ffffffffffffffffffffffffffffffffffffffff168173ffffffffffffffffffffffffffffffffffffffff161415611f93576040517f08c379a00000000000000000000000000000000000000000000000000000000081526004018080602001828103825260158152602001807f596f75206172652074686520302061646472657373000000000000000000000081525060200191505060405180910390fd5b6003600083815260200190815260200160002060090160008273ffffffffffffffffffffffffffffffffffffffff1673ffffffffffffffffffffffffffffffffffffffff16815260200190815260200160002060009054906101000a900460ff16612066576040517f08c379a00000000000000000000000000000000000000000000000000000000081526004018080602001828103825260168152602001807f596f7520617265206e6f7420616363657074656420210000000000000000000081525060200191505060405180910390fd5b8360006003600083815260200190815260200160002060010154116120f3576040517f08c379a000000000000000000000000000000000000000000000000000000000815260040180806020018281038252601c8152602001807f546865207265717565737420646f6573206e6f7420657869737420210000000081525060200191505060405180910390fd5b84600180600281111561210257fe5b6003600084815260200190815260200160002060080160009054906101000a900460ff16600281111561213157fe5b146121a4576040517f08c379a00000000000000000000000000000000000000000000000000000000081526004018080602001828103825260198152602001807f72657175657374206973206e6f742061636365737369626c650000000000000081525060200191505060405180910390fd5b8642600360008381526020019081526020016000206002015410612230576040517f08c379a000000000000000000000000000000000000000000000000000000000815260040180806020018281038252601d8152602001807f54686520646561646c696e65206973206e6f742072656163686564202100000081525060200191505060405180910390fd5b87600261223d8282612b26565b3373ffffffffffffffffffffffffffffffffffffffff16600360008c815260200190815260200160002060000160009054906101000a900473ffffffffffffffffffffffffffffffffffffffff1673ffffffffffffffffffffffffffffffffffffffff1614612314576040517f08c379a00000000000000000000000000000000000000000000000000000000081526004018080602001828103825260198152602001807f596f7520617265206e6f742074686520636f6d70616e7920210000000000000081525060200191505060405180910390fd5b600260008a73ffffffffffffffffffffffffffffffffffffffff1673ffffffffffffffffffffffffffffffffffffffff168152602001908152602001600020600001600081548092919060019003919050555050505050505050505050565b6002602052806000526040600020600091509050806000015490806001018054600181600116156101000203166002900480601f0160208091040260200160405190810160405280929190818152602001828054600181600116156101000203166002900480156124255780601f106123fa57610100808354040283529160200191612425565b820191906000526020600020905b81548152906001019060200180831161240857829003601f168201915b5050505050908060020160009054906101000a900460ff16905083565b8133600073ffffffffffffffffffffffffffffffffffffffff168173ffffffffffffffffffffffffffffffffffffffff1614156124e7576040517f08c379a00000000000000000000000000000000000000000000000000000000081526004018080602001828103825260158152602001807f596f75206172652074686520302061646472657373000000000000000000000081525060200191505060405180910390fd5b6003600083815260200190815260200160002060090160008273ffffffffffffffffffffffffffffffffffffffff1673ffffffffffffffffffffffffffffffffffffffff16815260200190815260200160002060009054906101000a900460ff166125ba576040517f08c379a00000000000000000000000000000000000000000000000000000000081526004018080602001828103825260168152602001807f596f7520617265206e6f7420616363657074656420210000000000000000000081525060200191505060405180910390fd5b836000600360008381526020019081526020016000206001015411612647576040517f08c379a000000000000000000000000000000000000000000000000000000000815260040180806020018281038252601c8152602001807f546865207265717565737420646f6573206e6f7420657869737420210000000081525060200191505060405180910390fd5b84600180600281111561265657fe5b6003600084815260200190815260200160002060080160009054906101000a900460ff16600281111561268557fe5b146126f8576040517f08c379a00000000000000000000000000000000000000000000000000000000081526004018080602001828103825260198152602001807f72657175657374206973206e6f742061636365737369626c650000000000000081525060200191505060405180910390fd5b8642600360008381526020019081526020016000206003015411158015612735575042600360008381526020019081526020016000206002015410155b6127a7576040517f08c379a00000000000000000000000000000000000000000000000000000000081526004018080602001828103825260138152602001807f596f7520617265206e6f7420696e2074696d650000000000000000000000000081525060200191505060405180910390fd5b8760026127b48282612b26565b6000602060ff161161282e576040517f08c379a00000000000000000000000000000000000000000000000000000000081526004018080602001828103825260168152602001807f5468652075726c206973206e6f742076616c696420210000000000000000000081525060200191505060405180910390fd5b88600360008c815260200190815260200160002060070181905550600260003373ffffffffffffffffffffffffffffffffffffffff1673ffffffffffffffffffffffffffffffffffffffff168152602001908152602001600020600001600081548092919060010191905055506000600360008c815260200190815260200160002060050154905061292981600160008060009054906101000a900473ffffffffffffffffffffffffffffffffffffffff1673ffffffffffffffffffffffffffffffffffffffff1673ffffffffffffffffffffffffffffffffffffffff16815260200190815260200160002054612b6190919063ffffffff16565b600160008060009054906101000a900473ffffffffffffffffffffffffffffffffffffffff1673ffffffffffffffffffffffffffffffffffffffff1673ffffffffffffffffffffffffffffffffffffffff168152602001908152602001600020819055507f7a7155a6db7422f66966425ec30527e136747ac05cee83643a4e48f46c678acf8b33600360008f815260200190815260200160002060070154600260003373ffffffffffffffffffffffffffffffffffffffff1673ffffffffffffffffffffffffffffffffffffffff168152602001908152602001600020600001600081548092919060010191905055604051808581526020018473ffffffffffffffffffffffffffffffffffffffff1673ffffffffffffffffffffffffffffffffffffffff16815260200183815260200182815260200194505050505060405180910390a13373ffffffffffffffffffffffffffffffffffffffff166108fc829081150290604051600060405180830381858888f19350505050158015612ab4573d6000803e3d6000fd5b505050505050505050505050565b60008082840290506000841480612ae1575082848281612ade57fe5b04145b612ae757fe5b8091505092915050565b600080828481612afd57fe5b0490508091505092915050565b600080828401905083811015612b1c57fe5b8091505092915050565b806003600084815260200190815260200160002060080160006101000a81548160ff02191690836002811115612b5857fe5b02179055505050565b600082821115612b6d57fe5b818303905092915050565b604051806060016040528060008152602001606081526020016000151581525090565b828054600181600116156101000203166002900490600052602060002090601f016020900481019282601f10612bdc57805160ff1916838001178555612c0a565b82800160010185558215612c0a579182015b82811115612c09578251825591602001919060010190612bee565b5b509050612c179190612c8b565b5090565b604051806101200160405280600073ffffffffffffffffffffffffffffffffffffffff1681526020016000815260200160008152602001600081526020016000815260200160008152602001606081526020016000801916815260200160006002811115612c8557fe5b81525090565b612cad91905b80821115612ca9576000816000905550600101612c91565b5090565b9056fea265627a7a72315820fb41598db3a46d597a201e0e0861d2f862b2a5dd6161041b6e4a74800403f4cb64736f6c63430005100032",
  "source": "pragma solidity >=0.4.22 <0.7.0;\r\n// SPDX-License-Identifier: MIT\r\n\r\nimport \"./../installed_contracts/zeppelin/contracts/math/SafeMath.sol\";\r\n\r\ncontract Marketplace {\r\n    \r\n using SafeMath for uint;\r\n    \r\n    struct User {\r\n        uint reputation;\r\n        string name;\r\n        bool isUser;\r\n    }\r\n\r\n    struct Request {\r\n            address company;\r\n            uint id;\r\n            uint deadline; //delai\r\n            uint startTime;\r\n            uint miniReputation;\r\n            uint remuneration;\r\n            string description;\r\n            bytes32 url;\r\n            State state;\r\n            mapping(address=>bool) accepted;\r\n            mapping(address=>bool) candidates;\r\n    }\r\n\r\n    address owner;\r\n    mapping (address => uint) public balances;\r\n    mapping(address => User) public users;\r\n    mapping(uint => Request) public requests;\r\n   // mapping(uint=>mapping(address=>bool))public candidates;\r\n   \r\n\r\n    uint public requestCount;\r\n    uint decimal=100;\r\n    uint cost=102;\r\n\r\n    enum State{OPENED,ONGOING,CLOSED}\r\n\r\n    event UserCreated(address _add,uint _reputation, string  _name, bool _isUser);\r\n    event RequestCreated(address _add, uint _id, uint _deadline, uint _startTime,\r\n    uint _miniReputation, uint _cost, string _description,\r\n    string _url, State _state);\r\n    event Application(uint _id,address _add,uint _reputation,bool _isCandidate);\r\n    event OfferAccepted(uint _id,address _add,bool _isAccepted);\r\n    event Delivration(uint _id,address _add,bytes32 _url,uint _reputation);\r\n\r\n    constructor() public{\r\n        owner = msg.sender;\r\n        requestCount;\r\n    }\r\n   \r\n   modifier requestState \r\n        (uint _id, State _state)\r\n        {\r\n            require(requests[_id].state==_state,\"request is not accessible\");\r\n            _;\r\n        }\r\n    \r\n    modifier nextRequestState\r\n        (uint _id, State _state)\r\n        {\r\n            updateState(_id, _state);\r\n         _;\r\n\r\n        }\r\n    \r\n    modifier isUser\r\n        (address _add)\r\n        {\r\n            require(_add!=address(0),\"You are the 0 address\");\r\n            require(users[_add].isUser,\"You are not a user !\");\r\n            _;\r\n        }\r\n\r\n    modifier isRequest\r\n        (uint _id)\r\n        {\r\n            require(requests[_id].id > 0,\"The request does not exist !\");\r\n            _;\r\n        }\r\n    \r\n   \r\n    modifier isCandidate\r\n        (uint _id,address _add)\r\n        {\r\n            require(_add!=address(0),\"You are the 0 address\");\r\n            require(requests[_id].candidates[_add],\"You are not a candidate !\");\r\n            _;\r\n        }\r\n\r\n        \r\n    modifier isCompany\r\n        (uint _id)\r\n        {\r\n            require(msg.sender!=address(0),\"You are the 0 address\");\r\n            require(requests[_id].company!=msg.sender,\"You are the company !\");\r\n            _;\r\n        }\r\n\r\n    modifier isAccepted\r\n        (uint _id,address _add)\r\n        {\r\n            require(_add!=address(0),\"You are the 0 address\");\r\n            require(requests[_id].accepted[_add],\"You are not accepted !\");\r\n            _;\r\n        }\r\n        \r\n    modifier isInTime\r\n    (uint _id)\r\n    {\r\n      require(requests[_id].startTime<=now && requests[_id].deadline>=now,\"You are not in time\");  \r\n      _;\r\n    }\r\n    \r\n    modifier afterDeadline\r\n    (uint _id)\r\n    {\r\n        require(requests[_id].deadline < now,\"The deadline is not reached !\");\r\n        _;\r\n    }\r\n\r\n    function  updateState(uint _id,State _state) internal{\r\n        requests[_id].state = _state;\r\n    }\r\n\r\n//s'inscrire\r\n    function inscription (string memory _name, uint _reputation) \r\n    public \r\n    {\r\n        require(!users[msg.sender].isUser, \"You are already user !\");\r\n        require(bytes(_name).length>0,\"the name is not valid\");\r\n        require(_reputation>=1,\"the reputation is not valid\");\r\n        User memory newUser = User(_reputation,_name,true);\r\n        users[msg.sender] = newUser;\r\n        emit UserCreated(msg.sender,_reputation,_name,true);\r\n    }\r\n    \r\n    //ajouter demande\r\n    function addRequest\r\n    (string calldata _description,\r\n    uint _miniReputation,\r\n    uint _deadline,\r\n    uint _remuneration)\r\n    external\r\n    payable\r\n    isUser(msg.sender)\r\n    {\r\n        //verifier qu'on a bien une description \r\n        require(bytes(_description).length>0,\"The description is not valid !\");\r\n        //verifier que la reputation est sup  1\r\n        require(_miniReputation>1,\"miniReputation is not valid\");\r\n        //verifier que la dure est bien plus superieur  0\r\n        require(_deadline>0,\"The deadline is not valid\");\r\n        //verifier que la remuneration est sup  0\r\n        require(_remuneration>0,\"remuneration is not valid\");\r\n        //verifier si on a assez de Wei\r\n        uint _amount = (_remuneration.mul(cost)).div(decimal);\r\n        require(msg.value >= _amount,\"not enough of Wei\");\r\n        requestCount++;\r\n        balances [owner]=balances [owner].add(msg.value);\r\n       uint deadline = _deadline * 1 days;\r\n       Request memory newRequest = Request(msg.sender,requestCount,deadline,0,_miniReputation,_remuneration,_description,\"\",State.OPENED);\r\n       requests[requestCount] = newRequest;\r\n       emit RequestCreated(msg.sender,requestCount,deadline,0,requests[requestCount].miniReputation,requests[requestCount].remuneration,requests[requestCount].description,\"\",State.OPENED);\r\n    }\r\n\r\n    \r\n\r\n//postuler\r\n    function applyTo(uint _id)\r\n    public\r\n    isUser(msg.sender)\r\n    isCompany(_id)\r\n    isRequest(_id)\r\n    requestState(_id,State.OPENED)\r\n    {\r\n\r\n        require(!requests[_id].candidates[msg.sender],\"You are already candidate !\");\r\n        require(requests[_id].miniReputation<=users[msg.sender].reputation,\"Reputation is not enought\");\r\n        requests[_id].candidates[msg.sender]=true;\r\n        emit Application(_id,msg.sender,users[msg.sender].reputation,requests[_id].candidates[msg.sender]);\r\n    }\r\n    \r\n    \r\n//acceptOffer\r\n    function acceptOffer(uint _id,address _add)\r\n    public\r\n    isRequest(_id)\r\n    requestState (_id,State.OPENED)\r\n    isCandidate(_id,_add)\r\n    nextRequestState(_id,State.ONGOING)\r\n    {\r\n        require(requests[_id].company==msg.sender,\"You are not the company !\");\r\n        requests[_id].startTime = now;\r\n        requests[_id].deadline=requests[_id].deadline+requests[_id].startTime;\r\n        requests[_id].accepted[_add] =true;   \r\n         emit OfferAccepted(_id,_add,requests[_id].accepted[_add]);\r\n    }\r\n    \r\n//delivery\r\n\r\n    function delivery(uint _id,bytes32 _url)\r\n    public\r\n    isAccepted(_id,msg.sender)\r\n    isRequest(_id)\r\n    requestState (_id,State.ONGOING)\r\n    isInTime(_id)\r\n    nextRequestState(_id,State.CLOSED)\r\n    {\r\n        require(bytes32(_url).length>0,\"The url is not valid !\");\r\n        requests[_id].url = _url;\r\n        users[msg.sender].reputation++;\r\n        uint remuneration = requests[_id].remuneration;\r\n       // address company = requests[_id].company;\r\n        balances[owner] = balances[owner].sub(remuneration);\r\n        emit Delivration(_id,msg.sender,requests[_id].url,users[msg.sender].reputation++);\r\n        msg.sender.transfer(remuneration);\r\n    }\r\n    \r\n    \r\n    function sanction(uint _id, address _add)\r\n    public\r\n    isAccepted(_id,_add)\r\n    isRequest(_id)\r\n    requestState (_id,State.ONGOING)\r\n    afterDeadline(_id)\r\n    nextRequestState(_id,State.CLOSED)\r\n    {\r\n        require(requests[_id].company==msg.sender,\"You are not the company !\");\r\n        users[_add].reputation--;\r\n    }\r\n\r\n}  ",
  "sourcePath": "C:\\Users\\khati\\Desktop\\Alyra_project\\defi-ii\\contracts\\Marketplace.sol",
  "compiler": {
    "name": "solc",
    "version": "0.5.16+commit.9c3226ce.Emscripten.clang"
  },
  "schemaVersion": "3.0.23",
  "updatedAt": "2020-07-02T14:12:57.196Z",
  "networkType": "ethereum",
  "devdoc": {
    "methods": {}
  },
  "userdoc": {
    "methods": {}
  }
}